{
  "contractName": "Counter",
  "abi": [
    {
      "inputs": [],
      "payable": false,
      "stateMutability": "nonpayable",
      "type": "constructor"
    },
    {
      "constant": false,
      "inputs": [],
      "name": "increment",
      "outputs": [],
      "payable": false,
      "stateMutability": "nonpayable",
      "type": "function"
    },
    {
      "constant": true,
      "inputs": [],
      "name": "get",
      "outputs": [
        {
          "name": "",
          "type": "uint256"
        }
      ],
      "payable": false,
      "stateMutability": "view",
      "type": "function"
    }
  ],
  "bytecode": "0x608060405234801561001057600080fd5b50600160008190555060cd806100276000396000f3006080604052600436106049576000357c0100000000000000000000000000000000000000000000000000000000900463ffffffff1680636d4ce63c14604e578063d09de08a146076575b600080fd5b348015605957600080fd5b506060608a565b6040518082815260200191505060405180910390f35b348015608157600080fd5b5060886093565b005b60008054905090565b6001600054016000819055505600a165627a7a723058207a6883d41c461b22bcb2e410d2342e506efc6e972b7d3d0171a8dc71f84a98b80029",
  "source": "pragma solidity ^0.4.16;\n\ncontract Counter {\n  uint count;\n\n  constructor() public {\n    count = 1;\n  }\n\n  function increment() public {\n    count = count + 1;\n  }\n\n  function get() public view returns (uint) {\n    return count;\n  }\n}",
  "sourcePath": "/Users/joshpitzalis/Desktop/usabl/contracts/counter.sol",
  "compiler": {
    "name": "solc",
    "version": "0.4.24+commit.e67f0147.Emscripten.clang"
  },
  "schemaVersion": "2.0.0",
  "updatedAt": "2018-08-11T22:47:04.359Z"
}